{
  "contractName": "DayLimitMock",
  "abi": [
    {
      "constant": true,
      "inputs": [],
      "name": "dailyLimit",
      "outputs": [
        {
          "name": "",
          "type": "uint256"
        }
      ],
      "payable": false,
      "stateMutability": "view",
      "type": "function"
    },
    {
      "constant": true,
      "inputs": [],
      "name": "totalSpending",
      "outputs": [
        {
          "name": "",
          "type": "uint256"
        }
      ],
      "payable": false,
      "stateMutability": "view",
      "type": "function"
    },
    {
      "constant": true,
      "inputs": [],
      "name": "lastDay",
      "outputs": [
        {
          "name": "",
          "type": "uint256"
        }
      ],
      "payable": false,
      "stateMutability": "view",
      "type": "function"
    },
    {
      "constant": true,
      "inputs": [],
      "name": "spentToday",
      "outputs": [
        {
          "name": "",
          "type": "uint256"
        }
      ],
      "payable": false,
      "stateMutability": "view",
      "type": "function"
    },
    {
      "inputs": [
        {
          "name": "_value",
          "type": "uint256"
        }
      ],
      "payable": false,
      "stateMutability": "nonpayable",
      "type": "constructor"
    },
    {
      "constant": false,
      "inputs": [
        {
          "name": "_value",
          "type": "uint256"
        }
      ],
      "name": "attemptSpend",
      "outputs": [],
      "payable": false,
      "stateMutability": "nonpayable",
      "type": "function"
    },
    {
      "constant": false,
      "inputs": [
        {
          "name": "_newLimit",
          "type": "uint256"
        }
      ],
      "name": "setDailyLimit",
      "outputs": [],
      "payable": false,
      "stateMutability": "nonpayable",
      "type": "function"
    },
    {
      "constant": false,
      "inputs": [],
      "name": "resetSpentToday",
      "outputs": [],
      "payable": false,
      "stateMutability": "nonpayable",
      "type": "function"
    }
  ],
  "bytecode": "0x608060405234801561001057600080fd5b5060405160208061034c833981018060405281019080805190602001909291905050508080600081905550610052610067640100000000026401000000009004565b6002819055505060006003819055505061007d565b6000620151804281151561007757fe5b04905090565b6102c08061008c6000396000f300608060405260043610610083576000357c0100000000000000000000000000000000000000000000000000000000900463ffffffff1680635c52c2f51461008857806367eeba0c1461009f5780636997bcab146100ca5780636b0c932d146100f5578063b20d30a914610120578063b349f6c71461014d578063f059cf2b1461017a575b600080fd5b34801561009457600080fd5b5061009d6101a5565b005b3480156100ab57600080fd5b506100b46101af565b6040518082815260200191505060405180910390f35b3480156100d657600080fd5b506100df6101b5565b6040518082815260200191505060405180910390f35b34801561010157600080fd5b5061010a6101bb565b6040518082815260200191505060405180910390f35b34801561012c57600080fd5b5061014b600480360381019080803590602001909291905050506101c1565b005b34801561015957600080fd5b50610178600480360381019080803590602001909291905050506101cd565b005b34801561018657600080fd5b5061018f6101f6565b6040518082815260200191505060405180910390f35b6101ad6101fc565b565b60005481565b60035481565b60025481565b6101ca81610206565b50565b806101d781610210565b15156101e257600080fd5b816003600082825401925050819055505050565b60015481565b6000600181905550565b8060008190555050565b600060025461021d61027e565b111561023a57600060018190555061023361027e565b6002819055505b6001548260015401101580156102565750600054826001540111155b15610274578160016000828254019250508190555060019050610279565b600090505b919050565b6000620151804281151561028e57fe5b049050905600a165627a7a72305820219a65a07ff4ba7d3c50a542b048a1d227eebfb71de781a3d38548aa9c6be08f0029",
  "source": "pragma solidity ^0.4.18;\nimport \"../../contracts/DayLimit.sol\";\n\ncontract DayLimitMock is DayLimit {\n  uint256 public totalSpending;\n\n  function DayLimitMock(uint256 _value) public DayLimit(_value) {\n    totalSpending = 0;\n  }\n\n  function attemptSpend(uint256 _value) external limitedDaily(_value) {\n    totalSpending += _value;\n  }\n\n  function setDailyLimit(uint256 _newLimit) external {\n    _setDailyLimit(_newLimit);\n  }\n\n  function resetSpentToday() external {\n    _resetSpentToday();\n  }\n\n}\n",
  "sourcePath": "F:\\smartContract\\crowdsale\\contracts\\mocks\\DayLimitMock.sol",
  "compiler": {
    "name": "solc",
    "version": "0.4.24+commit.e67f0147.Emscripten.clang"
  },
  "schemaVersion": "2.0.1",
  "updatedAt": "2018-10-13T21:33:30.173Z"
}