{
  "contractName": "ERC23TokenMock",
  "abi": [
    {
      "constant": true,
      "inputs": [],
      "name": "totalSupply",
      "outputs": [
        {
          "name": "",
          "type": "uint256"
        }
      ],
      "payable": false,
      "stateMutability": "view",
      "type": "function"
    },
    {
      "constant": true,
      "inputs": [
        {
          "name": "_owner",
          "type": "address"
        }
      ],
      "name": "balanceOf",
      "outputs": [
        {
          "name": "balance",
          "type": "uint256"
        }
      ],
      "payable": false,
      "stateMutability": "view",
      "type": "function"
    },
    {
      "constant": false,
      "inputs": [
        {
          "name": "_to",
          "type": "address"
        },
        {
          "name": "_value",
          "type": "uint256"
        }
      ],
      "name": "transfer",
      "outputs": [
        {
          "name": "",
          "type": "bool"
        }
      ],
      "payable": false,
      "stateMutability": "nonpayable",
      "type": "function"
    },
    {
      "inputs": [
        {
          "name": "initialAccount",
          "type": "address"
        },
        {
          "name": "initialBalance",
          "type": "uint256"
        }
      ],
      "payable": false,
      "stateMutability": "nonpayable",
      "type": "constructor"
    },
    {
      "anonymous": false,
      "inputs": [
        {
          "indexed": true,
          "name": "from",
          "type": "address"
        },
        {
          "indexed": true,
          "name": "to",
          "type": "address"
        },
        {
          "indexed": false,
          "name": "value",
          "type": "uint256"
        }
      ],
      "name": "Transfer",
      "type": "event"
    },
    {
      "constant": false,
      "inputs": [
        {
          "name": "_to",
          "type": "address"
        },
        {
          "name": "_value",
          "type": "uint256"
        },
        {
          "name": "_data",
          "type": "bytes"
        }
      ],
      "name": "transferERC23",
      "outputs": [
        {
          "name": "success",
          "type": "bool"
        }
      ],
      "payable": false,
      "stateMutability": "nonpayable",
      "type": "function"
    }
  ],
  "bytecode": "0x608060405234801561001057600080fd5b506040516040806106c1833981018060405281019080805190602001909291908051906020019092919050505080600160008473ffffffffffffffffffffffffffffffffffffffff1673ffffffffffffffffffffffffffffffffffffffff16815260200190815260200160002081905550806000819055505050610628806100996000396000f300608060405260043610610062576000357c0100000000000000000000000000000000000000000000000000000000900463ffffffff16806318160ddd14610067578063685c60de1461009257806370a082311461013d578063a9059cbb14610194575b600080fd5b34801561007357600080fd5b5061007c6101f9565b6040518082815260200191505060405180910390f35b34801561009e57600080fd5b50610123600480360381019080803573ffffffffffffffffffffffffffffffffffffffff16906020019092919080359060200190929190803590602001908201803590602001908080601f01602080910402602001604051908101604052809392919081815260200183838082843782019150505050505091929192905050506101ff565b604051808215151515815260200191505060405180910390f35b34801561014957600080fd5b5061017e600480360381019080803573ffffffffffffffffffffffffffffffffffffffff169060200190929190505050610358565b6040518082815260200191505060405180910390f35b3480156101a057600080fd5b506101df600480360381019080803573ffffffffffffffffffffffffffffffffffffffff169060200190929190803590602001909291905050506103a1565b604051808215151515815260200191505060405180910390f35b60005481565b600080600061020e86866103a1565b5060009150853b15199150811561034b578590508073ffffffffffffffffffffffffffffffffffffffff1663c0ee0b8a3387876040518463ffffffff167c0100000000000000000000000000000000000000000000000000000000028152600401808473ffffffffffffffffffffffffffffffffffffffff1673ffffffffffffffffffffffffffffffffffffffff16815260200183815260200180602001828103825283818151815260200191508051906020019080838360005b838110156102e45780820151818401526020810190506102c9565b50505050905090810190601f1680156103115780820380516001836020036101000a031916815260200191505b50945050505050600060405180830381600087803b15801561033257600080fd5b505af1158015610346573d6000803e3d6000fd5b505050505b6001925050509392505050565b6000600160008373ffffffffffffffffffffffffffffffffffffffff1673ffffffffffffffffffffffffffffffffffffffff168152602001908152602001600020549050919050565b60008073ffffffffffffffffffffffffffffffffffffffff168373ffffffffffffffffffffffffffffffffffffffff16141515156103de57600080fd5b600160003373ffffffffffffffffffffffffffffffffffffffff1673ffffffffffffffffffffffffffffffffffffffff16815260200190815260200160002054821115151561042c57600080fd5b61047e82600160003373ffffffffffffffffffffffffffffffffffffffff1673ffffffffffffffffffffffffffffffffffffffff168152602001908152602001600020546105c590919063ffffffff16565b600160003373ffffffffffffffffffffffffffffffffffffffff1673ffffffffffffffffffffffffffffffffffffffff1681526020019081526020016000208190555061051382600160008673ffffffffffffffffffffffffffffffffffffffff1673ffffffffffffffffffffffffffffffffffffffff168152602001908152602001600020546105de90919063ffffffff16565b600160008573ffffffffffffffffffffffffffffffffffffffff1673ffffffffffffffffffffffffffffffffffffffff168152602001908152602001600020819055508273ffffffffffffffffffffffffffffffffffffffff163373ffffffffffffffffffffffffffffffffffffffff167fddf252ad1be2c89b69c2b068fc378daa952ba7f163c4a11628f55a4df523b3ef846040518082815260200191505060405180910390a36001905092915050565b60008282111515156105d357fe5b818303905092915050565b60008082840190508381101515156105f257fe5b80915050929150505600a165627a7a723058209e2efbee0beec89deb1f51c118d1a08e477c32b184cef594c7faa8641416e5b30029",
  "source": "pragma solidity ^0.4.18;\n\n\nimport '../token/BasicToken.sol';\n\n\ncontract ERC23ContractInterface {\n  function tokenFallback(address _from, uint256 _value, bytes _data) external;\n}\n\ncontract ERC23TokenMock is BasicToken {\n\n  function ERC23TokenMock(address initialAccount, uint256 initialBalance) public {\n    balances[initialAccount] = initialBalance;\n    totalSupply = initialBalance;\n  }\n\n  // ERC23 compatible transfer function (except the name)\n  function transferERC23(address _to, uint256 _value, bytes _data) public\n    returns (bool success)\n  {\n    transfer(_to, _value);\n    bool is_contract = false;\n    assembly {\n      is_contract := not(iszero(extcodesize(_to)))\n    }\n    if(is_contract) {\n      ERC23ContractInterface receiver = ERC23ContractInterface(_to);\n      receiver.tokenFallback(msg.sender, _value, _data);\n    }\n    return true;\n  }\n}\n",
  "sourcePath": "F:\\smartContract\\crowdsale\\contracts\\mocks\\ERC23TokenMock.sol",
  "compiler": {
    "name": "solc",
    "version": "0.4.24+commit.e67f0147.Emscripten.clang"
  },
  "schemaVersion": "2.0.1",
  "updatedAt": "2018-10-13T21:33:30.174Z"
}