{
  "contractName": "ReentrancyAttack",
  "abi": [
    {
      "constant": false,
      "inputs": [
        {
          "name": "data",
          "type": "bytes4"
        }
      ],
      "name": "callSender",
      "outputs": [],
      "payable": false,
      "stateMutability": "nonpayable",
      "type": "function"
    }
  ],
  "bytecode": "0x608060405234801561001057600080fd5b50610144806100206000396000f300608060405260043610610041576000357c0100000000000000000000000000000000000000000000000000000000900463ffffffff1680630a2df1ed14610046575b600080fd5b34801561005257600080fd5b5061009060048036038101908080357bffffffffffffffffffffffffffffffffffffffffffffffffffffffff19169060200190929190505050610092565b005b3373ffffffffffffffffffffffffffffffffffffffff16817c010000000000000000000000000000000000000000000000000000000090046040518163ffffffff167c01000000000000000000000000000000000000000000000000000000000281526004016000604051808303816000875af192505050151561011557600080fd5b505600a165627a7a72305820c50704c73457ad497979f279447e2cd95e2b31f063cf3e84d12774e66ac257d60029",
  "source": "pragma solidity ^0.4.18;\n\ncontract ReentrancyAttack {\n\n  function callSender(bytes4 data) public {\n    require(msg.sender.call(data));\n  }\n\n}\n",
  "sourcePath": "F:\\smartContract\\crowdsale\\contracts\\mocks\\ReentrancyAttack.sol",
  "compiler": {
    "name": "solc",
    "version": "0.4.24+commit.e67f0147.Emscripten.clang"
  },
  "schemaVersion": "2.0.1",
  "updatedAt": "2018-10-13T21:33:30.176Z"
}