{
  "contractName": "ReentrancyMock",
  "abi": [
    {
      "constant": true,
      "inputs": [],
      "name": "counter",
      "outputs": [
        {
          "name": "",
          "type": "uint256"
        }
      ],
      "payable": false,
      "stateMutability": "view",
      "type": "function"
    },
    {
      "inputs": [],
      "payable": false,
      "stateMutability": "nonpayable",
      "type": "constructor"
    },
    {
      "constant": false,
      "inputs": [
        {
          "name": "n",
          "type": "uint256"
        }
      ],
      "name": "countLocalRecursive",
      "outputs": [],
      "payable": false,
      "stateMutability": "nonpayable",
      "type": "function"
    },
    {
      "constant": false,
      "inputs": [
        {
          "name": "n",
          "type": "uint256"
        }
      ],
      "name": "countThisRecursive",
      "outputs": [],
      "payable": false,
      "stateMutability": "nonpayable",
      "type": "function"
    },
    {
      "constant": false,
      "inputs": [
        {
          "name": "attacker",
          "type": "address"
        }
      ],
      "name": "countAndCall",
      "outputs": [],
      "payable": false,
      "stateMutability": "nonpayable",
      "type": "function"
    },
    {
      "constant": false,
      "inputs": [],
      "name": "callback",
      "outputs": [],
      "payable": false,
      "stateMutability": "nonpayable",
      "type": "function"
    }
  ],
  "bytecode": "0x608060405260008060006101000a81548160ff02191690831515021790555034801561002a57600080fd5b5060006001819055506104f4806100426000396000f30060806040526004361061006d576000357c0100000000000000000000000000000000000000000000000000000000900463ffffffff168063083b27321461007257806361bc221a146100895780638c5344fa146100b457806396ffa690146100e1578063b672ad8b1461010e575b600080fd5b34801561007e57600080fd5b50610087610151565b005b34801561009557600080fd5b5061009e6101aa565b6040518082815260200191505060405180910390f35b3480156100c057600080fd5b506100df600480360381019080803590602001909291905050506101b0565b005b3480156100ed57600080fd5b5061010c600480360381019080803590602001909291905050506102ec565b005b34801561011a57600080fd5b5061014f600480360381019080803573ffffffffffffffffffffffffffffffffffffffff16906020019092919050505061035c565b005b6000809054906101000a900460ff1615151561016c57600080fd5b60016000806101000a81548160ff02191690831515021790555061018e6104b6565b60008060006101000a81548160ff021916908315150217905550565b60015481565b6000806000809054906101000a900460ff161515156101ce57600080fd5b60016000806101000a81548160ff02191690831515021790555060405180807f636f756e74546869735265637572736976652875696e74323536290000000000815250601b0190506040518091039020915060008311156102cd576102316104b6565b3073ffffffffffffffffffffffffffffffffffffffff16827c01000000000000000000000000000000000000000000000000000000009004600185036040518263ffffffff167c0100000000000000000000000000000000000000000000000000000000028152600401808281526020019150506000604051808303816000875af1925050509050600115158115151415156102cc57600080fd5b5b60008060006101000a81548160ff021916908315150217905550505050565b6000809054906101000a900460ff1615151561030757600080fd5b60016000806101000a81548160ff021916908315150217905550600081111561033f576103326104b6565b61033e600182036102ec565b5b60008060006101000a81548160ff02191690831515021790555050565b60008060009054906101000a900460ff1615151561037957600080fd5b60016000806101000a81548160ff02191690831515021790555061039b6104b6565b60405180807f63616c6c6261636b282900000000000000000000000000000000000000000000815250600a019050604051809103902090508173ffffffffffffffffffffffffffffffffffffffff16630a2df1ed826040518263ffffffff167c010000000000000000000000000000000000000000000000000000000002815260040180827bffffffffffffffffffffffffffffffffffffffffffffffffffffffff19167bffffffffffffffffffffffffffffffffffffffffffffffffffffffff19168152602001915050600060405180830381600087803b15801561048057600080fd5b505af1158015610494573d6000803e3d6000fd5b5050505060008060006101000a81548160ff0219169083151502179055505050565b600180600082825401925050819055505600a165627a7a72305820e9b4c503788454a3dcc7df10279f80af77d8f64f6db6b9af9aaf70e7816d14560029",
  "source": "pragma solidity ^0.4.18;\n\nimport '../ReentrancyGuard.sol';\nimport './ReentrancyAttack.sol';\n\ncontract ReentrancyMock is ReentrancyGuard {\n\n  uint256 public counter;\n\n  function ReentrancyMock() public {\n    counter = 0;\n  }\n\n  function count() private {\n    counter += 1;\n  }\n\n  function countLocalRecursive(uint256 n) public nonReentrant {\n    if(n > 0) {\n      count();\n      countLocalRecursive(n - 1);\n    }\n  }\n\n  function countThisRecursive(uint256 n) public nonReentrant {\n    bytes4 func = bytes4(keccak256(\"countThisRecursive(uint256)\"));\n    if(n > 0) {\n      count();\n      bool result = this.call(func, n - 1);\n      require(result == true);\n    }\n  }\n\n  function countAndCall(ReentrancyAttack attacker) public nonReentrant {\n    count();\n    bytes4 func = bytes4(keccak256(\"callback()\"));\n    attacker.callSender(func);\n  }\n\n  function callback() external nonReentrant {\n    count();\n  }\n\n}\n",
  "sourcePath": "F:\\smartContract\\crowdsale\\contracts\\mocks\\ReentrancyMock.sol",
  "compiler": {
    "name": "solc",
    "version": "0.4.24+commit.e67f0147.Emscripten.clang"
  },
  "schemaVersion": "2.0.1",
  "updatedAt": "2018-10-13T21:33:30.176Z"
}