{
  "contractName": "SecureTargetMock",
  "abi": [
    {
      "constant": false,
      "inputs": [],
      "name": "checkInvariant",
      "outputs": [
        {
          "name": "",
          "type": "bool"
        }
      ],
      "payable": false,
      "stateMutability": "nonpayable",
      "type": "function"
    }
  ],
  "bytecode": "0x6080604052348015600f57600080fd5b5060a58061001e6000396000f300608060405260043610603f576000357c0100000000000000000000000000000000000000000000000000000000900463ffffffff168063e79487da146044575b600080fd5b348015604f57600080fd5b5060566070565b604051808215151515815260200191505060405180910390f35b600060019050905600a165627a7a72305820eb1c96789953690817667bb6ec100cfdee69d2bbc1fcf9801caf16411a1589ef0029",
  "source": "pragma solidity ^0.4.18;\n\n\nimport {Bounty, Target} from \"../../contracts/Bounty.sol\";\n\n\ncontract SecureTargetMock is Target {\n  function checkInvariant() public returns(bool) {\n    return true;\n  }\n}\n\ncontract SecureTargetBounty is Bounty {\n  function deployContract() internal returns (address) {\n    return new SecureTargetMock();\n  }\n}\n",
  "sourcePath": "F:\\smartContract\\crowdsale\\contracts\\mocks\\SecureTargetBounty.sol",
  "compiler": {
    "name": "solc",
    "version": "0.4.24+commit.e67f0147.Emscripten.clang"
  },
  "schemaVersion": "2.0.1",
  "updatedAt": "2018-10-14T07:15:09.986Z"
}